:020000040800F2
:1000000000500020DD1600082F17000831170008E7
:1000100033170008351700083717000800000000E4
:100020000000000000000000000000003917000878
:100030003B170008000000003D17000841170008AA
:100040002D1700082D1700082D1700082D17000880
:100050002D1700082D1700082D1700082D17000870
:100060002D1700082D1700082D1700082D17000860
:100070002D1700082D1700082D1700082D17000850
:100080002D1700082D170008F11700082D1700087C
:100090002D1700082D1700082D1700082D17000830
:1000A0002D1700082D1700082D1700082D17000820
:1000B0002D1700082D1700082D1700082D17000810
:1000C0002D1700082D1700082D1700082D17000800
:1000D0002D170008751800082D1700082D170008A7
:1000E0002D1700082D1700082D170008000000002C
:1000F0000000000000000000000000000000000000
:0C01000000000000000000005FF808F1A3
:10010C0010B5054C237833B9044B13B10448AFF345
:10011C0000800123237010BD180000200000000097
:10012C00E41A000808B5034B1BB103490348AFF3AD
:10013C00008008BD000000001C000020E41A00082C
:10014C0040F0BF60024B40F40030D860704700BFF5
:10015C0000ED00E010B5C2780378E2B1124AD16824
:10016C004278C943C1F30221C1F10404A2400F2417
:10017C00807824FA01F101400A430C491201C81895
:10018C00D2B280F8002303F01F005A0901238340E8
:10019C0041F8223010BD01215A0903F01F0301FA66
:1001AC0003F320320149F3E700ED00E000E100E049
:1001BC00044B04281A680CBF42F0040222F004021B
:1001CC001A60704710E000E0014B1860704700BFE8
:1001DC0000300040014B5860704700BF00300040B9
:1001EC00014B9860704700BF003000404AF6AA22CD
:1001FC00014B1A60704700BF003000404CF6CC42F7
:10020C00014B1A60704700BF00300040034A53682E
:10021C0023F4404318435060704700BF0010024065
:10022C001C4A10B5536803F00C03042B01D0082BA7
:10023C001FD0194B03605368184CC3F30313E15CD4
:10024C000368CB4043605168C1F30221615C23FA1F
:10025C0001F181605168C1F3C221615CCB40C36084
:10026C0052680F49C2F381328A5CB3FBF2F303612B
:10027C0010BD53685168C3F38343CC0303F10203ED
:10028C0002D408494B43D5E751688903F9D4024994
:10029C00F8E700BF0010024000127A0004000020B2
:1002AC000000002000093D00044B9A6911B1104375
:1002BC009861704722EA0000FAE700BF0010024084
:1002CC0030B50D460446038A8A899BB2C98823F44B
:1002DC0040530B4303828389A98823F4B05323F042
:1002EC000C031B041B0C0B43298987B00B43698936
:1002FC000B439BB28381838A9BB223F440731343D9
:10030C00838201A8FFF78CFF174A039B0499944240
:10031C0018BF19461922A3894A4313F4004F2B68BE
:10032C004FF0640514BF5B009B00B2FBF3F1B1FB13
:10033C00F5F3A2891801120405FB13130BD5DA008F
:10034C003232B2FBF5F202F0070242EA00039BB232
:10035C00238107B030BD1B013233B3FBF5F303F03F
:10036C000F030343F3E700BF00380140838921B139
:10037C009BB243F400538381704723F400531B0456
:10038C001B0CF8E701F01F0310B5C1F34214012157
:10039C00012C01FA03F105D10C3003683AB1194371
:1003AC00016010BD022C0CBF10301430F5E723EAAD
:1003BC000101F5E70123C1F3421210B5012A01F046
:1003CC001F0403FA04F30ED1828992B213400288FF
:1003DC0092B26BB10123090A03FA01F10A4214BF6C
:1003EC001846002010BD022A0CBF028A828AECE754
:1003FC00184610BD3B280ED05B2810D07D280CD0A1
:10040C0027280CD05E280CD0BF280BD9064B1844DB
:10041C0010F8C00C70470420704701207047002072
:10042C007047D920704700BFFC1A0008002340F227
:10043C00253010B50649074C34F81320120292FBF4
:10044C00F0F221F813200133B3F5FD7FF4D110BD88
:10045C00400000203C1B0008B0F5E17F28BF4FF4A2
:10046C00E170024B33F81000704700BF40000020D1
:10047C00174970B5B1F88433834226D34FF4E17534
:10048C0000267219531031F813209CB290420CD2F2
:10049C00013CA5B231F81540A04213D92244B0EB6F
:1004AC00620F98BF2B46184670BDFCD90134A6B21A
:1004BC0031F81640A04205D22244B0EB620F88BF3F
:1004CC003346F0E7AE42DCD9EDE74FF4E173EAE7EF
:1004DC004000002010B50246007850B10123834043
:1004EC005088013B1C18A14205D988B2C31A53800D
:1004FC009080084610BD81423DBF8BB253809380E3
:10050C009188F6E713B501920379012203F0FF04F9
:10051C005BB90271019BC160836040F22771006876
:10052C00FFF730FF204602B010BD1046FBE738B590
:10053C0003790546012B11D1EB6800685A1CEA605F
:10054C001B788380AC68013CAC602CB9224640F22D
:10055C002771FFF717FF2C71002038BD012038BD23
:10056C0008B5012140F20D20FFF79EFEBDE80840C2
:10057C0001214FF48040FFF797BE00008323002138
:10058C004FF08060094AD360094BD9600949486033
:10059C000949116001F1022101F5081190315160F6
:1005AC00064A1A604FF022325A6070470008014028
:1005BC00000C014000000140222200202222444471
:1005CC0007B54FF4C060FFF7BBFD25238DF8043051
:1005DC0000238DF80630012301A88DF80730FFF7B2
:1005EC00B9FD122301A88DF80430FFF7B3FD03B059
:1005FC005DF804FB08B56FF00400FFF7D9FD4FF46C
:10060C007A72084BF0211B68B3FBF2F3064A013BEC
:10061C005360064B83F82310002393600723136069
:10062C0008BD00BF1400002010E000E000ED00E069
:10063C0070B50A24C2F10402D2B202EB8203032A7F
:10064C0000D970BDB1FBF4F504FB1511866B89B2B2
:10065C009940314301328163D2B2A9B20533EEE73E
:10066C0010B51B4CA36843F00103A360A36843F0CF
:10067C000403A360A3685B07FCD44FF40013A363CB
:10068C006368134843F080036360A368032243F458
:10069C000043A360A36840F28E2143F4E043A360BF
:1006AC00236943F007032361236943F46033236117
:1006BC00FFF7BEFF63684FF4004043F48073636040
:1006CC00A36843F00103A360BDE81040FFF79EBD93
:1006DC000024014030B50F4C85B005460021204662
:1006EC00FFF744FE0023ADF80430ADF80630ADF84A
:1006FC000830ADF80C300C2369462046ADF80A30B2
:10070C000095FFF7DDFD01212046FFF72FFE05B018
:10071C0030BD00BF0038014008B545F25550FFF719
:10072C0053FD0520FFF756FD4FF47F60FFF758FD92
:10073C00FFF75CFDBDE80840FFF760BD4B232DE9DA
:10074C00F04188B0ADF818304FF47A730024ADF84E
:10075C001A304FF00405C8234FF01008144E154FF3
:10076C00ADF81E30ADF81C408DF8164064F304153E
:10077C002420E3B28DF8143004338DF81530059B2A
:10078C0008FA04F2ADF804301B0C8DF80630079B08
:10079C0000FB046000938DF80850069B92B239461A
:1007AC00013400F0D5F9042CE2D108B0BDE8F08199
:1007BC00B0050020000C014008B5FFF7D1FEFFF793
:1007CC00DDFEFFF717FFFFF74BFF4FF4E130FFF7AC
:1007DC0081FFFFF7F5FEFFF79FFFBDE80840FFF72D
:1007EC00ADBF0000002370B50B4D0C4C2A78194698
:1007FC00103254F82220184600F0DCFC084B2A7802
:10080C001B78012102EB4302002354F822201846E6
:10081C00BDE8704000F0CEBC42060020881F0008E6
:10082C004A060020002310B5174C184A21781846A8
:10083C0052F82120194600F0BDFC2021002000F0C8
:10084C0043FC0023124A1946FF2000F0B3FC202180
:10085C00002000F039FC0F4B22781B780E4902EB7C
:10086C004302002351F82220FF20194600F0A2FC7D
:10087C0021780A4A0023BDE8104052F821200420B8
:10088C00012100F097BC00BF42060020681F000841
:10089C00EC1F000844060020701F0008381F0008D9
:1008AC0073B5304B304A1978002352F82120184682
:1008BC00194600F07FFC00232C4E18462C4A0121CF
:1008CC0000F078FCB36E132B44DD0A2500240122C2
:1008DC0093FBF5F311469BB2FF200194009400F0BA
:1008EC008DFC2E21204600F0EFFBB26E019492FBA2
:1008FC00F5F305FB1323012200949BB21146FF2054
:10090C0000F07CFC2021002000F0DEFB0421002004
:10091C0000F0DAFB2021002000F0D6FB052100209E
:10092C0000F0D2FB2021002000F0CEFB0023114A66
:10093C000121FF2000F03EFC002120220E4BFF2065
:10094C00B3F868308DE806000322012100F056FC54
:10095C0002B070BD0023094A0121FF2000F02AFCDF
:10096C00D0E700BF42060020301F0008A40400207E
:10097C00B92000087921000834040020D01F000899
:10098C002DE9F74F0025684C4FF00A0A2278674E84
:10099C00AA420CBF80222A4633788DE8240001330A
:1009AC0002222946284600F029FC614F3378614920
:1009BC000AFB03731A7A884602F003030A785E492D
:1009CC0002EB4302237851F82220012B0CBF802329
:1009DC002B462946022000F0EDFB2B46574A2946B0
:1009EC00052000F0E7FB22784FF0200B022A0CBF09
:1009FC0080222A46337829460AFB037307205B883A
:100A0C008DE80408032200F0F9FBDFF8409198F818
:100A1C0000202B4659F8222029460B2000F0CAFB57
:100A2C0022783378032A0CBF80222A460AFB0373F0
:100A3C0029469B880E208DE80408022200F0DEFB7C
:100A4C00C021012000F040FB2821284600F03CFB8F
:100A5C0033780AFB037A9AF8083013F0200F2378C6
:100A6C005CD0042B0CBF80232B46354A0121084651
:100A7C0000F0A0FB2921002000F026FB0A25002312
:100A8C00304A0121052000F095FB22784FF0300A06
:100A9C00052A0CBF80220022337807206B43FB5AB7
:100AAC008DE804040122B3FBF5F3114600F0A6FB1C
:100ABC002E21002000F008FB337809206B43FA5AF2
:100ACC00B2FBF5F305FB132322789BB2052A0CBF6E
:100ADC00802200228DE804040122114600F08EFBD6
:100AEC0098F800200023023259F8222001210B2013
:100AFC0000F060FB22782021062A0CBF8022002205
:100B0C0033780E2005FB0377FB88019100920121BD
:100B1C00022200F073FB03B0BDE8F08F042B0CBF76
:100B2C0080230023084AA1E748060020470600203E
:100B3C004C06002042060020401F000879210008C6
:100B4C00E01F0008B9200008D21F0008581F000839
:100B5C0082B030B5044600200493A28004AA2082FF
:100B6C00A074A060216004F1180392E80300069AB7
:100B7C0083E803009DF81C50BDF81230A282120CC1
:100B8C00A27584F820500BB1C5F3800394F8202093
:100B9C0063F3820284F82020BDE8304002B0704735
:100BAC00036882889B681A4090F82030C3F3C00118
:100BBC008A42826819D1C16801320131C16059077A
:100BCC00826051D5418B8A424ED113F0020F43F013
:100BDC00010380F8203005D0C38BD21A826090F9C3
:100BEC001400704790F9150070470021C160018B0B
:100BFC008A4207D313F0010304D103828360837C00
:100C0C0001338374038A828B01339BB29A42038231
:100C1C0028D80023038290F82030827C13F0100F28
:100C2C000CD0012A0AD913F0010107D143F00103BA
:100C3C00817480F8203090F916007047012A90F8E2
:100C4C00202008D113F0010305D1837442F0010375
:100C5C0080F82030C3E713466FF3000380F8203090
:100C6C0000238374002383604FF0FF307047000033
:100C7C000A4A137843F0020313700222084B1A70CD
:100C8C00084B93F8442042F0020283F8442093F876
:100C9C00682042F0020283F8682070474106002069
:100CAC0045060020B0050020044A1178062934BFFF
:100CBC000123FA230B441370704700BF4806002031
:100CCC00064B93F844206FF3410283F8442093F8C9
:100CDC0068206FF3410283F868207047B00500204C
:100CEC00044A137843F0020313700022024B1A706B
:100CFC00704700BF4106002043060020054A1378C8
:100D0C002BB1013B082B28BF082313707047082315
:100D1C00FBE700BF4A060020034A1378072B8CBF61
:100D2C0000230133137070474A06002070470000FF
:100D3C00084B094993F84420084842F0020283F812
:100D4C00442093F8682042F0020283F868200022C5
:100D5C0000F08ABBB00500204006002043060020AE
:100D6C000B4A0C4913780C4843F0020313700B4BDD
:100D7C0093F844206FF3410283F8442093F86820E1
:100D8C006FF3410283F86820012200F069BB00BFB9
:100D9C00410600204006002045060020B00500203A
:100DAC0070477047704710B504460298002808BF7A
:100DBC000120B3F57A7F0FD38C4281BFA3F57A73F0
:100DCC00B3FBF0F304F1FF34E41A94420FD88C42D5
:100DDC000DD32246104610BD8C4206D9013CA242CE
:100DEC00F8D3A14298BF2246F4E71446F9E78A42A9
:100DFC0028BF0A46EEE7000037B54A4B1A78062A98
:100E0C0000F28C80DFE802F004142C40546376006E
:100E1C004FF48043444C454A207845490093454B58
:100E2C0012881B6B0988FFF7BEFF207003B030BD22
:100E3C000A223D4B3E491D783F4B498802FB053544
:100E4C004FF480432C7A394A00933A4B04F0030058
:100E5C001B6B5288FFF7A7FF60F301042C72E5E7C8
:100E6C000A22314B32491C78334B898802FB0434FB
:100E7C004FF4807360882D4A00932E4B92881B6B25
:100E8C00FFF791FF6080D1E70A22274B28491C7895
:100E9C00294BC98802FB04344FF40073A088234A01
:100EAC000093244BD2881B6BFFF77DFFA080BDE71E
:100EBC000A211D4B1A78204B01FB0232137AC3F323
:100ECC00401181F0010161F345131372AEE70A245E
:100EDC00154B194D1B78154A5C434FF40073285B76
:100EEC0013490093134B52891B6B4989FFF75BFF26
:100EFC0028539BE70A220C4B0D491C780E4B898911
:100F0C0002FB04344FF40073E088084A0093094B49
:100F1C0092891B6BFFF747FFE08087E700221A706E
:100F2C0084E700BF48060020470600204423000841
:100F3C0052230008B00500204C06002010B50446D2
:100F4C000298002808BF0120B3F57A7F0ED3944293
:100F5C003FBFA3F57A73B3FBF0F30134E41894426A
:100F6C0002D88C4228BF2246104610BD944234BF92
:100F7C00621C0A46F8E7000037B54A4B1A78062A75
:100F8C0000F28C80DFE802F004142C4054637600ED
:100F9C004FF48043444C454A207845490093454BD7
:100FAC0012885B6D0988FFF7C9FF207003B030BD54
:100FBC000A223D4B3E491D783F4B498802FB0535C3
:100FCC004FF480432C7A394A00933A4B04F00300D7
:100FDC005B6D5288FFF7B2FF60F301042C72E5E7FA
:100FEC000A22314B32491C78334B898802FB04347A
:100FFC004FF4807360882D4A00932E4B92885B6D62
:10100C00FFF79CFF6080D1E70A22274B28491C7808
:10101C00294BC98802FB04344FF40073A088234A7F
:10102C000093244BD2885B6DFFF788FFA080BDE74F
:10103C000A211D4B1A78204B01FB0232137AC3F3A1
:10104C00401181F0010161F345131372AEE70A24DC
:10105C00154B194D1B78154A5C434FF40073285BF4
:10106C0013490093134B52895B6D4989FFF766FF57
:10107C0028539BE70A220C4B0D491C780E4B89898F
:10108C0002FB04344FF40073E088084A0093094BC8
:10109C0092895B6DFFF752FFE08087E700221A70A0
:1010AC0084E700BF480600204706002044230008C0
:1010BC0052230008B00500204C06002010F1FF3030
:1010CC0000D2704700BFF9E71A4BDA6800282DD020
:1010DC0022F00202DA60DA68C2F30B02DA60DA6834
:1010EC0042F00102DA60D8680A0202F4704202434C
:1010FC00DA6000BF00BFDA68090322F00102DA608F
:10110C00DA6889B2C2F30B02DA60DA6842F00102E3
:10111C00DA60DA681143D96000BF00BFDA684FF4B7
:10112C00486022F00102DA60FFF7C8BF42F0020209
:10113C00D0E700BF000C0140012108B50846FFF7BD
:10114C00C3FFBDE8084044F62060FFF7B7BF0000BE
:10115C0070B51448FFF7B2FF0024134E134D36F848
:10116C0014000001FFF7AAFF295D01200134FFF7ED
:10117C00ABFF042CF3D14FF47A50FFF79FFF4021C3
:10118C000120FFF7A1FF0024094D295D0020013447
:10119C00FFF79AFF382CF8D18021BDE87040012070
:1011AC00FFF792BF80320200FC22000804230008E3
:1011BC00082300080F2870B514461D4607D889016E
:1011CC0061F07F01C9B201440120FFF77DFF0A4E97
:1011DC00013C6DB214F8010F00B970BD002D07DA97
:1011EC0033785B0704D520210020FFF76DFFF1E772
:1011FC00FFF700F981B2F7E7410600202DE9F8432B
:10120C000F2815461C469DF820709DF8246007D8C1
:10121C00890161F07F01C9B201440120FFF754FF3D
:10122C002A464FF00009DFF87480002A34D00021E0
:10123C000123551E03E003EB83035B009BB2C8B292
:10124C00A84201F10101F6DB00209C42C1B200F181
:10125C00010010D291B14FF001093031C9B23A06F8
:10126C0004D598F800305B0748BF20210020FFF719
:10127C002BFF2A46D9E7E41AA4B2E6E7B9F1000F2E
:10128C0006D1302E06D0012A0CBF30212021E6E7F2
:10129C003021E4E73146E2E7BDE8F883410600205F
:1012AC0008B5FFF789FA0B48FFF708FFFFF750FF67
:1012BC00FFF7BCF8084B1A786FF300021A7005237D
:1012CC00064A1370064A1370064A1370064A074BF7
:1012DC001A6008BD80320200BC0600208A0500207E
:1012EC00840500209005002000380140980500205E
:1012FC00F8B5037ADA0715D50B4D00242E466FF39B
:10130C0000030A4F037295F90030002B03DA3819E9
:10131C00FFF746FC287096F90030002B02DA2434D3
:10132C00902CF0D1F8BD00BFAC050020B00500201A
:10133C00037A9A070BD56FF3410303720A4B1A78A1
:10134C00012A09D004D3022A0AD000221A7070474D
:10135C000649074800F0BEB80449064800F00AB92F
:10136C000249054800F044B940060020AC050020B5
:10137C0045060020430600204606002030B5037ABF
:10138C00A1B05A070DD51E4A6FF38203037213885E
:10139C00052B08D8013313801A4A936843F40013C1
:1013AC00936021B030BD00241480174A174D137878
:1013BC00214643F00103686E137000F036F9A866FD
:1013CC00134D2146192340F21312686E00F03FF9B9
:1013DC00104CA866A16E4FF47A7340F6B832606E6A
:1013EC0000F04CF90C4BA06693F900200B496846B1
:1013FC0000F040FB694602460948FFF783F8CBE74B
:10140C003400002000240140410600201405002077
:10141C0034040020A4040020AC0500204023000864
:10142C0098050020037A1A0744BF6FF3C3030372B5
:10143C007047000008B5FFF733FF084CFEF7D6FEE7
:10144C002046FFF755FF2046FFF772FF2046FFF7B7
:10145C0095FF2046FFF7E6FFF0E700BFB20600203D
:10146C0000230B700270704701230B7002707047E1
:10147C000D4B93F84420D2070BD593F86830DB075B
:10148C0007D50222094B1A700022094B1A70FFF77C
:10149C0053BE084A138801339BB2B3F5C87F13803F
:1014AC0024BF012303707047B005002040060020C4
:1014BC004606002036000020054B10B51B7804466C
:1014CC00DB0703D5FFF738FE0923237010BD00BFDF
:1014DC00BC06002091F9003070B5002B05460E4675
:1014EC00214C12DB237843F001032370237803F0A3
:1014FC00FB032370027891F9003003EBC2031B4A03
:10150C0052F823309847FF2333702B780C2B26D8B6
:10151C00DFE803F007210A0A0A0A0A0A0A0A0A0A79
:10152C000A002846FFF7A4FF2378DA071AD5237898
:10153C0003F0FE03237023789B0705D5237803F073
:10154C00FD032370FFF7F8FD2A78094BBDE87040C6
:10155C0053F8223018472846FFF7AEFFE4E7002384
:10156C002B70E1E770BD00BF410600207C21000814
:10157C00D41F000891F9003070B5002B05460E46BB
:10158C00184C12DB237843F001032370237803F00B
:10159C00FB032370027891F9003003EBC203124A6B
:1015AC0052F823309847FF2333702B78082B84BFD5
:1015BC0000232B702378DA0713D5237803F0FE036E
:1015CC00237023789B0705D5237803F0FD03237044
:1015DC00FFF7B2FD2A78054BBDE8704053F8223076
:1015EC00184770BD41060020DC210008E41F0008EC
:1015FC0003780C2B84BF00230370704710B50B7855
:10160C00182B84BF00230B700B785C1C0C7040F8FB
:10161C0023200023021F603052F8041F90420B4419
:10162C00FAD11920B3FBF0F010BD0A23A0F5F42079
:10163C00A0F59070B0FBF3F34FF47A7058439628F2
:10164C0003D8884202D9401A70470020704770B501
:10165C0005468D420E46144618460ED9AD1BFEF7B4
:10166C00FBFEAAB25443DC22B4FBF2F480B2A4B267
:10167C002044BDE87040FEF7FBBE70BD10B5D41A17
:10168C0049F64042B2FBF4F244F6206402FB1343E9
:10169C001844424308D44FF47A7092FBF0F20A4B90
:1016AC0092B2186802441A60084A13780133DBB20C
:1016BC00032B85BF0021044B0846186891BF13709B
:1016CC0011708008196010BD3C000020380000200B
:1016DC00DFF834D0002103E00C4B5B58435004314D
:1016EC000B480C4B42189A42F6D30B4A02E00023EB
:1016FC0042F8043B094B9A42F9D300F0C7F800F0CA
:10170C00C7F9FFF797FE70470050002068230008C8
:10171C00000000201800002018000020C006002047
:10172C00FEE77047FEE7FEE7FEE7FEE7704770470F
:10173C0070470000284B1A7A42F001021A725A883C
:10174C00092A83BF00225A801A7A013286BF42F0DE
:10175C0002021A725A809A88272A83BF00229A8022
:10176C001A7A013286BF42F004021A729A801A88E1
:10177C00B2F57A7F23BF00221A801A7A01322ABF6F
:10178C0042F008021A801A72144A92F82010C90703
:10179C000BD492F84410C80707D492F86810C90704
:1017AC0003D492F88C20D20706D500220C49DA809B
:1017BC000A7802F0FB020A70DA88B2F57A7F23BF4E
:1017CC000022DA80064A013229BF1378DA8083F0CE
:1017DC0004031370704700BFB2060020B005002050
:1017EC004106002038B5184C23685B072AD5E16BFD
:1017FC001648FEF76FFE164D024605F16C012846A1
:10180C00FFF7FCFE6866216C1248FEF763FE124D72
:10181C00024605F16C012846FFF7F0FE6866616C24
:10182C000E48FEF757FE0E4D024605F16C01284698
:10183C00FFF7E4FE6866626C0A4B1A60236823F0BB
:10184C000403236038BD00BF002401408A0500203A
:10185C00140500208405002034040020900500208D
:10186C00A4040020A805002008B540F22771054803
:10187C00FEF7A0FD20B1BDE808400348FEF757BEB7
:10188C0008BD00BF0038014098050020374B82B0DE
:10189C001A6842F001021A605968354A0A405A60C7
:1018AC001A6822F0847222F480321A601A6822F4C8
:1018BC0080221A605A6822F4FE025A604FF41F020A
:1018CC009A600022009201921A6842F480321A60E7
:1018DC001A6802F400320192009A01320092019AC5
:1018EC001AB9009AB2F5A06FF2D11A6812F400324C
:1018FC0018BF01220192019A012A05D04FF0006213
:10190C001C4B9A6002B070471B4A116841F01001E1
:10191C001160116821F003011160116841F002019E
:10192C0011605A685A605A685A605A6842F4806268
:10193C005A605A6822F47C125A605A6842F4E812CF
:10194C005A601A6842F080721A601A689201FCD5CB
:10195C005A6822F003025A605A6842F002025A6036
:10196C005A6802F00C02082AFAD1C7E700100240AC
:10197C000000FFF800ED00E000200240012370B5EC
:10198C00B1FBF3F4944201D213B970BD5343F7E7A2
:10199C00B1FBF3F40568092C03FB141105F10106E6
:1019AC00CCBF37343034066093FBF2F32C70EBE78A
:1019BC002DE9F34113460C4606462D2702AD45F89A
:1019CC00040D227832B9019B1A700198801B02B069
:1019DC00BDE8F081252A47D16278642A22D00AD842
:1019EC00582A13D0632A15D0252A09D10199481CED
:1019FC0001900A7004E0732A24D003D8692A11D00C
:101A0C000234DEE7752A2AD0782AF9D103F10408CA
:101A1C00102227E0019A0433511C019153F8041C45
:101A2C001170EDE7196803F10408002904DA019B31
:101A3C0049425A1C01921F700A222846FFF79EFF4A
:101A4C004346DDE7191D1B681A780AB90B46D7E720
:101A5C00019A501C019013F8010B1070F4E70A2244
:101A6C0003F104081968E8E701990134481C019056
:101A7C000A70A6E70EB403B503AA52F8041B019230
:101A8C00FFF796FF02B05DF804EB03B0704700005F
:101A9C0070B500250C4E0D4CA41BA410A54209D109
:101AAC0000F01AF800250A4E0A4CA41BA410A542FB
:101ABC0005D170BD56F8253098470135EEE756F83C
:101ACC00253098470135F2E76023000860230008B1
:101ADC006023000864230008F8B500BFF8BC08BCFC
:101AEC009E467047F8B500BFF8BC08BC9E467047D0
:101AFC0041A042A1E045A3A4A5A64BA74D484FA8E1
:101B0C00504354A9AA58E1ABACE2ADAE62AFB0B150
:101B1C0061B2B3B4E365B6B7B8B9BABBBCBD6FBEFE
:101B2C007063BF79E478E5C0C1E6C2C3C4C5C6C75B
:101B3C00000027004F0077009E00C600EE00E30077
:101B4C003D0165018D018D01B501DD0105022D02FF
:101B5C0055027D02A502CE02F6021E031E034603A9
:101B6C006F039703C003E8031104390462048B0468
:101B7C00B304B304DC0405052E0556057F05A80542
:101B8C00D105FA0523064C064C0675069E06C706BB
:101B9C00F006190742076B079507BE07E707E7072B
:101BAC0010083A0863088C08B608DF0808093209DF
:101BBC005B0984098409AE09D709010A2A0A540A67
:101BCC007D0AA70AD00AFA0A230B230B4D0B760BBE
:101BDC00A00BC90BF30B1C0C460C700C990CC30C12
:101BEC00C30CEC0C160D3F0D690D920DBC0DE50DE3
:101BFC000F0E380E620E620E8B0EB50EDE0E080F37
:101C0C00310F5B0F840FAD0FD70F001000102A108F
:101C1C0053107C10A610CF10F81021114B11741119
:101C2C009D119D11C611EF11191242126B129412D3
:101C3C00BD12E6120F133813381361138A13B31342
:101C4C00DC1304142D1456147F14A814D014D014BF
:101C5C00F91422154A1573159C15C415ED15151696
:101C6C003E16671667168F16B716E016081731174B
:101C7C0059178117AA17D217FA17FA1723184B18E6
:101C8C0073189B18C318EC1814193C1964198C1987
:101C9C008C19B419DC19041A2D1A551A7D1AA51AA7
:101CAC00CD1AF51A1D1B1D1B451B6D1B941BBC1B54
:101CBC00E41B0C1C341C5C1C841CAC1CAC1CD41C09
:101CCC00FC1C241D4C1D741D9B1DC31DEB1D131EE4
:101CDC003B1E3B1E631E8B1EB31EDB1E031F2B1FE6
:101CEC00531F7B1FA31FCA1FCA1FF21F1A2042209B
:101CFC006A209220BA20E2200A2133215B215B2149
:101D0C008321AB21D321FB2123224B2273229C2242
:101D1C00C422EC22EC2214233C2365238D23B5230F
:101D2C00DD2306242E2456247F247F24A724CF24AD
:101D3C00F8242025492571259A25C225EB25132643
:101D4C0013263C2664268D26B526DE2607272F274C
:101D5C0058278127A927A927D227FB2724284C28D5
:101D6C0075289E28C728F0281829412941296A2955
:101D7C009329BC29E5290E2A372A602A892AB22AF6
:101D8C00DB2ADB2A042B2D2B562B7F2BA82BD12BBC
:101D9C00FB2B242C4D2C762C762C9F2CC92CF22C26
:101DAC001B2D442D6E2D972DC02DE92D132E132E8A
:101DBC003C2E652E8F2EB82EE12E0B2F342F5E2F3E
:101DCC00872FB12FB12FDA2F03302D3056308030C2
:101DDC00A930D330FC302631503150317931A33118
:101DEC00CC31F6311F32493273329C32C632F0326A
:101DFC00F032193343336D339633C033EA33133433
:101E0C003D34673491349134BA34E4340E3538357A
:101E1C0061358B35B535DF350936323632365C36C1
:101E2C008636B036DA3604372E3757378137AB372C
:101E3C00D537D537FF37293853387D38A738D138BF
:101E4C00FB3825394F3979397939A339CD39F739F7
:101E5C00213A4B3A753A9F3AC93AF33A1D3B1D3B2E
:101E6C00473B713B9B3BC53BEF3B193C433C6D3CBB
:101E7C00973CC23CC23CEC3C163D403D6A3D943D17
:101E8C00BE3DE93D133E3D3E673E673E913EBB3E47
:101E9C00E63E103F3A3F643F8E3FB93FE33F0D4073
:101EAC000D40374062408C40B640E0400B4135411C
:101EBC005F418A41B441B441DE41084233425D4244
:101ECC008742B242DC42064331435B435B4385436A
:101EDC00B043DA4305442F4459448444AE44D844B7
:101EEC00034503452D4558458245AD45D74501462B
:101EFC002C4656468146AB46AB46D64600472A474B
:101F0C0055477F47AA47D447FF4729485448544868
:101F1C007E48A948D348FE48284953497D49A849D9
:101F2C00D249FD49BE200008FF1F0008CF20000841
:101F3C000F200008BC200008BC200008D620000898
:101F4C0016200008D820000818200008DA20000805
:101F5C001A200008DE2000081E200008E2200008DD
:101F6C0022200008E81F0008E81F0008EA1F0008EC
:101F7C00EA1F0008ED2000082D20000802210008AF
:101F8C0042200008132100085320000824210008D7
:101F9C00642000083521000875200008EE1F000899
:101FAC00EE1F000846210008862000085721000873
:101FBC009720000868210008A8200008F1200008DC
:101FCC00312000082D2D2D0031080008AD08000827
:101FDC008D0900082A000000F107000820004D00C0
:101FEC003300495020202020202020202020202099
:101FFC00202000506973746F6E20706F7369746960
:10200C006F6E00415645524F4E0053004D007468A0
:10201C003D0074703D005445524D4F505245535342
:10202C00004E455700536572766963657320202016
:10203C00202020202000DFE7FBEA20202020202089
:10204C002020202020200046616E202020202020EF
:10205C002020202020202000526F757465722020D3
:10206C0020202020202020200054206D61696E74D7
:10207C0061696E696E672020200052656769737410
:10208C00726174696F6E20202020004E6574776F2A
:10209C00726B206E756D62657220200056657273CE
:1020AC00696F6E73202020202020202000503D00DE
:1020BC00C000CFEEEBEEE6E5EDE8E520EFEEF0F854
:1020CC00EDFF00C0C2C5D0CECD00CF00D00074E271
:1020DC003D0074EF3D00D2C5D0CCCECFD0C5D1D110
:1020EC0000CDDCDE00D1E5F0E2E8F1EDFBE52020EF
:1020FC002020202020004C616E67756167652020D0
:10210C0020202020202000C2E5EDF2E8EBFFF2EECB
:10211C00F020202020202000D0EEF3F2E5F020204B
:10212C00202020202020202000CFEEE4E4E5F0E663
:10213C00E0EDE8E5205420202000D0E5E3E8F1F2C2
:10214C00F0E0F6E8FF202020202000D1E5F2E5E2C7
:10215C00EEE920EDEEECE5F020202000C2E5F0F1F8
:10216C00E8E82020202020202020202000543D00C2
:10217C00AF0D0008AF0D0008AF0D0008AF0D000843
:10218C00AF0D0008AF0D0008AF0D0008AF0D000833
:10219C00AF0D0008B10D0008AD0D00087D0C000856
:1021AC003D0D0008AF0D0008AF0D0008AF0D000885
:1021BC00B50C0008050E0008850F0008CD0C0008B2
:1021CC006D0D0008AF0D0008AF0D0008AF0D000835
:1021DC00AF0D0008090D0008250D0008390D000889
:1021EC006D0D0008AF0D0008AF0D0008AF0D000815
:1021FC00AF0D0008AF0D0008AF0D0008AF0D0008C3
:10220C00ED0C0008AF0D0008AF0D0008AF0D000875
:10221C00AF0D0008AF0D0008AF0D0008AF0D0008A2
:10222C00AF0D0008AF0D0008AF0D0008AF0D000892
:10223C00AF0D0008AF0D0008AF0D0008AF0D000882
:10224C00AF0D0008AF0D0008AF0D0008AF0D000872
:10225C00AF0D0008AF0D0008AF0D0008AF0D000862
:10226C00AF0D0008AF0D0008AF0D0008AF0D000852
:10227C00AF0D0008AF0D0008AF0D0008AF0D000842
:10228C00AF0D0008AF0D0008AF0D0008AF0D000832
:10229C00AF0D0008AF0D0008AF0D0008AF0D000822
:1022AC00AF0D0008AF0D0008AF0D0008AF0D000812
:1022BC00AF0D0008AF0D0008AF0D0008AF0D000802
:1022CC00AF0D0008AF0D0008AF0D0008AF0D0008F2
:1022DC00AF0D0008AF0D0008AF0D0008AF0D0008E2
:1022EC00AF0D0008AF0D0008AF0D0008AF0D0008D2
:1022FC002003C8006400B004280C01060000000094
:10230C0000000000001F000E000400000609090672
:10231C0000000000080C0E0F0E0C08000000001F3F
:10232C000E040000000000040E1F0000000000015D
:10233C000214080025640A000900020090011E0026
:10234C0001003C001E0000000000640001000000C1
:04235C000500010077
:04236000310100083F
:042364000D0100085F
:10236800020406080000000001020304010203043D
:082378000607080900A24A044F
:04000005080016DDFC
:00000001FF
