:020000040800F2
:1000000000500020D10A0008230B0008250B00082F
:10001000270B0008290B00082B0B0008000000002C
:100020000000000000000000000000002D0B000890
:100030002F0B000800000000310B0008330B0008F4
:10004000210B0008210B0008210B0008210B0008E0
:10005000210B0008210B0008210B0008210B0008D0
:10006000210B0008210B0008210B0008210B0008C0
:10007000210B0008210B0008210B0008210B0008B0
:10008000210B0008210B0008E10D0008210B0008DE
:10009000210B0008210B0008210B0008310E00087D
:1000A000210B0008350B0008210B0008210B00086C
:1000B000210B0008210B0008B10D0008210B0008DE
:1000C000210B0008210B0008210B0008210B000860
:1000D000210B0008210B0008210B0008210B000850
:1000E000210B0008210B0008210B00080000000074
:1000F0000000000000000000000000000000000000
:0C01000000000000000000005FF808F1A3
:10010C0010B5054C237833B9044B13B10448AFF345
:10011C0000800123237010BDD402002000000000D9
:10012C00A80F000808B5034B1BB103490348AFF3F4
:10013C00008008BD00000000D8020020A80F0008B5
:10014C0043680A7923F4702323F4807343EA02236F
:10015C000A6810B5134343608A68CB6884681343FC
:10016C00084A224013434A7943EA420383600A7CDB
:10017C00C36A013A23F47003D2B243EA0253C36256
:10018C0010BD00BFFDF7F1FF836819B143F0010307
:10019C008360704723F00103FAE7836819B143F4D5
:1001AC0080738360704723F48073FAE7C9B24368A5
:1001BC0012B119434160704723EA0101FAE78368E1
:1001CC0043F00803836070478068C0F3C000704739
:1001DC00836843F00403836070478068C0F3800039
:1001EC007047836819B143F4A0038360704723F40C
:1001FC00A003FAE7092970B51BD90726A1F10A0457
:10020C00C56804EB4404A64025EA060503FA04F489
:10021C002C43C460062A18D81F24013A436B02EB06
:10022C008202944023EA040301FA02F21A43426365
:10023C0070BD0724056901EB4106B44025EA0405AD
:10024C0003FA06F42C430461E4E70C2A0CD81F24AF
:10025C00073A036B02EB8202944023EA040301FA8F
:10026C0002F21A43026370BD1F240D3AC36A02EBFB
:10027C008202944023EA040391401943C16270BD89
:10028C008B6810B50C6A026823430C6922F4FF4298
:10029C0023434C6922F0700223438C692343CC69BD
:1002AC0023434C6A23438C6A234313430360CB6878
:1002BC0043600B6883604B68C36010BD036819B161
:1002CC0043F001030360704723F001031B041B0C74
:1002DC00F8E70000034B044A5A6002F188325A6076
:1002EC00704700BF0020024023016745FFF7F2BFB3
:1002FC00024A136943F080031361704700200240E7
:10030C00FFF7F6BF024BD869C0F34000704700BF3F
:10031C0000200240014BD860704700BF0020024013
:10032C00084BDA68D10709D4DA68520708D4DB68BD
:10033C0013F0100F14BF03200420704701207047E6
:10034C00022070470020024010B50446FFF7E8FF7A
:10035C00012806D10CB9052010BDFFF7E1FF013CC7
:10036C00F6E7002C08BF052010BD000038B5054687
:10037C004FF43020FFF7E8FF042839D11D4C1E4BF9
:10038C004FF43020A36003F18833A360236943F05A
:10039C0020032361236943F040032361FFF7D4FF5B
:1003AC0004281DD1236923F02003DB04DB0C23611B
:1003BC00236943F010032361104B7DB100221A8096
:1003CC004FF43020FFF7C0FF052811D0094A1369FC
:1003DC0023F01003DB04DB0C136138BDA522EEE720
:1003EC00052805D0236923F02003DB04DB0C2361F3
:1003FC0038BD00BF002002402301674500F8FF1FF5
:10040C004AF6AA22014B1A60704700BF0030004028
:10041C00044B5A6911B110435861704722EA00002D
:10042C00FAE700BF00100240044B9A6911B1104367
:10043C009861704722EA0000FAE700BF0010024002
:10044C00044BDA6911B11043D861704722EA0000FD
:10045C00FAE700BF001002400028B8BF40427047C6
:10046C00002330B513605C1CDBB28B4204DB1368D9
:10047C0093FBF1F1116030BD50F8233015682B441B
:10048C0013602346EFE7000038B5394B1A7812B1E8
:10049C00012A2AD038BD04233648374C0370374B19
:1004AC009B6813F0400F03D1354B1B78DB0702D54B
:1004BC000923236038BD334D296889B200F044F913
:1004CC002D2228602B68053393FBF2F3093323604C
:1004DC002368082BDABF0923236023682368632B66
:1004EC0001DD6423E5E7236838BD40F667632549E1
:1004FC0008689842244B14DD197801291ED01A7013
:10050C0032221D4B1A60214AB2F844306FEA434341
:10051C006FEA53439BB2A2F844304FF000721C4B6D
:10052C000BE00A68B2F5CD7F1BDB1A4A12680A2A67
:10053C0005DD03221A7009220F4B1A6038BD1A7898
:10054C00002AFBD000221A70104AB2F84430C3F3D0
:10055C000E03A2F844304FF000720D4BC3F880200C
:10056C0038BD1A78022AE9D002221A701922C8E77B
:10057C0048030020F002002084030020000C0140FE
:10058C008003002010030020F8020020002C014002
:10059C0000E100E08803002040F61E421E4B196863
:1005AC0091420FDD1D4A117889070BD41C49B1F813
:1005BC004430C3F30E03A1F84430137843F0020324
:1005CC00137070471A6840F6E7239A4222DC134BEB
:1005DC001A7892071ED51A7802F0FD021A700922B9
:1005EC00104B1A600A22104B1A60104B1B7873B90F
:1005FC000B4AB2F844306FEA43436FEA53439BB261
:10060C00A2F844304FF00072094B1A607047002278
:10061C00084B1A70704700BF500300208003002065
:10062C00002C014088030020840300204803002094
:10063C0000E100E0F8020020384B10B59B68002167
:10064C0013F0400F364B03D0364A1278012A3CD1B6
:10065C00354A1160B3F84420100435D4334802787D
:10066C0012F0010224D0324C226801327D2A226021
:10067C002AD92160027802F0FE02027009202D4A6C
:10068C0010600A202C4A1060264A12786AB9B3F816
:10069C0044206FEA42426FEA524292B2A3F84420DD
:1006AC004FF00072254B1A6010BD254B197010BD10
:1006BC00244801680131192901D8016010BD02607C
:1006CC00184A1278002AE2D010BD1E4A1160B3F805
:1006DC0044201204F8D5144802680132192A01D8B2
:1006EC00026010BD134A016012680A2A02DD092259
:1006FC00114BD8E7B3F84420C2F30E02A3F8442000
:10070C004FF000720D4BC3F88020094B074A19605B
:10071C00137803F0FE031370D6E700BF000C014002
:10072C00002C0140480300204C03002080030020D3
:10073C0004030020880300208403002000E100E073
:10074C00F80200201403002010B502785AB10123DE
:10075C009340013B44889BB21A1992B2914204D93E
:10076C00CB1A43808180084610BDA14201D2418042
:10077C00F8E78188F7E7012108B50846FFF748FE3E
:10078C0001210420FFF75CFEBDE80840012140F682
:10079C000D20FFF749BE00000022094B0949DA6021
:1007AC00196009495960C3F80C24084AC3F800249D
:1007BC0002F1174202F51002C3F80424704700BF7F
:1007CC000008014020220224BB2B222222222224B8
:1007DC00044B1A6842F040021A60DA6842F0400298
:1007EC00DA6070470004014042F6E0621E4B1B6861
:1007FC00B3FBF2F31D4A136012681D4B013A92B21F
:10080C009A851A8B92B242F060021A831A8B92B2BA
:10081C0042F4C0421A839A8B92B242F060029A83DD
:10082C0000221A841A8C92B242F4887242F00102AD
:10083C001A841A8C92B242F4886242F004021A842E
:10084C005C22A3F844209A8992B242F001029A8168
:10085C009A8A92B242F001029A821A8892B242F0BB
:10086C0001021A80704700BFD002002058030020FC
:10087C00002C01404FF434620F4B9A854FF47A727E
:10088C001A859A8A92B242F001029A821A8A22F04E
:10089C0001021204120C1A829A8992B242F00102DD
:1008AC009A819A8992B242F040029A811A8892B245
:1008BC0042F001021A8070470008004070B52E4BC0
:1008CC0090B005932D4B0024069380230A934FF48C
:1008DC0000730B934FF400630C93202302260D93AB
:1008EC004FF4005305A926480E93079408960994D3
:1008FC000F94FFF7C5FC01212148FFF7DFFC012510
:10090C004FF4602369461F48029300948DF80450FD
:10091C008DF8054003948DF81060FFF711FC072348
:10092C002A4621461748FFF765FC07233246052166
:10093C001448FFF75FFC2A464FF408711148FFF783
:10094C0035FC29460F48FFF728FC0E482946FFF7CF
:10095C001BFC0C48FFF733FC0A48FFF735FC00285A
:10096C00FAD10848FFF734FC064C2046FFF735FC5B
:10097C000028FAD110B070BD4C2401403C0300207B
:10098C00080002400024014010200022104B9968FE
:10099C00104BC1F3400119700F4B83F8172383F8E8
:1009AC001203202083F8190349B94FF400021A608E
:1009BC004FF480221A604FF080421A6070474FF457
:1009CC00CD70064941F822000132082AFAD1ECE731
:1009DC00000801404803002000E100E06003002013
:1009EC000A22094B1A600922084B1A600322084B91
:1009FC001A601822074B1A602422074B1A60022235
:100A0C00064B1A60704700BF840300208803002047
:100A1C0038030020FC0200200003002054030020B7
:100A2C0008B5FFF7A8FEFFF7B7FEFFF7D1FEFFF7FB
:100A3C0045FFFFF7D9FEFFF71DFFFFF7A5FFBDE848
:100A4C000840FFF7CDBF000008B5FFF7E9FFFFF73F
:100A5C0059FC01280BD0FFF749FC3520FFF75AFC55
:100A6C000120FFF783FC0428FAD1FFF749FC104C56
:100A7C00104DFFF7C5FC224608212846FFF7F0FC75
:100A8C00FFF78AFD0C4A08210C48FFF7E9FCFFF739
:100A9C00FBFC0B4B1A785107EBD51A789207E8D46C
:100AAC001A7802F0FB021A70FFF7C6FDE1E700BFEF
:100ABC0050030020180300201003002060030020C6
:100ACC0080030020DFF834D0002103E00C4B5B588E
:100ADC00435004310B480C4B42189A42F6D30B4A44
:100AEC0002E0002342F8043B094B9A42F9D300F090
:100AFC00B9F900F02FFAFFF7A7FF7047005000205C
:100B0C00C80F000800000020D4020020D4020020EE
:100B1C008C030020FEE77047FEE7FEE7FEE7FEE7EA
:100B2C007047704770477047924A2DE9F84F138A07
:100B3C00914E23F001031B041B0C138233688F4A64
:100B4C0001333360136890460BB18D4B1B68D8F89A
:100B5C0000208C48D31AC8F8003042F21073D8F831
:100B6C000020894F9A4284BF0023C8F800300168E6
:100B7C003A6833684FF4B4744B435A436423B2FB62
:100B8C00F3F2B2FBF4F104FB1122804C804D226095
:100B9C002268824635F8122012B2002A46D142F65B
:100BAC00DF613068884208D92168013135F81110AD
:100BBC0009B2002976DD32602260764B19683A68FA
:100BCC009946914232D0D8F800B0BBF1000F2DD12C
:100BDC0018683B68C01AFFF73FFCC6F800B02368E2
:100BEC00013335F813301BB2002B6DDDC6F800B0A5
:100BFC00C4F800B0D9F800203B689A42CBBF664BD2
:100C0C00664B1B681B68CBBFB0FBF3F0584302303C
:100C1C006430C8F80000D9F800303A689342CCBF71
:100C2C0001234FF0FF333A6813443B603B685C4E42
:100C3C00322B5EDD0A20326823684FF4B47735F826
:100C4C0013304C491BB203EBC30393FBF0F303EBE0
:100C5C0052039BB28B87D6F800E023687833B3FB42
:100C6C00F7F207FB123335F8132012B202EBC20273
:100C7C0092FBF0F202EB5E0292B20A8736682268AF
:100C8C00F032B2FBF7F407FB142735F8172013B238
:100C9C0003EBC30393FBF0F303EB56039BB28B867E
:100CAC00BDE8F88F2268013235F81220120484D581
:100CBC00B42222602068DAF80020396843434A43A2
:100CCC00B3FBF2F3336078E72368013335F8133064
:100CDC001B048FD5B42323606423D4F800E0DAF826
:100CEC000020396803FB0EF34A43B3FBF2F3336085
:100CFC0080E706213B683A68C3F13203B3FBF1F39A
:100D0C0032273168134422680A2035F812204FF438
:100D1C00B47E12B25A4392FBF7F202EBC20292FB80
:100D2C00F0F202EB5102134992B28A87D6F800C056
:100D3C0022687832B2FBFEF80EFB182235F812202E
:100D4C0012B25A4392FBF7F202EBC20292FBF0F2A0
:100D5C0002EB5C0292B20A8736682268F032B2FB70
:100D6C00FEF40EFB142E35F81E2012B2534393FBE7
:100D7C00F7F38DE7002C0140080300205C030020F2
:100D8C005403002038030020880300204403002073
:100D9C000000002084030020FC020020000300203F
:100DAC005803002008B501210748FFF71AFA074A33
:100DBC00138A23F001031B041B0C1382044A1378BF
:100DCC0043F00403137008BD0024014000080040E8
:100DDC008003002010B50E4B1A780132D2B2072ACC
:100DEC0088BF00221A700B4A11780131C9B2072949
:100DFC0088BF002111701078074A0849146852689E
:100E0C0041F820401978064B43F8212010BD00BF53
:100E1C000C030020490300203C0300206003002049
:100E2C00180300200B4B5A69520612D55A6942F02E
:100E3C0040025A61084AB2F84430C3F30E03A2F8D8
:100E4C004430064A137843F0010313700022044B1C
:100E5C001A60704700040140002C01408003002000
:100E6C0004030020374B82B01A6842F001021A606A
:100E7C005968354A0A405A601A6822F0847222F482
:100E8C0080321A601A6822F480221A605A6822F49E
:100E9C00FE025A604FF41F029A60002200920192E7
:100EAC001A6842F480321A601A6802F40032019215
:100EBC00009A01320092019A1AB9009AB2F5A06F09
:100ECC00F2D11A6812F4003218BF01220192019A71
:100EDC00012A05D04FF000621C4B9A6002B070479B
:100EEC001B4A116841F010011160116821F00301D7
:100EFC001160116841F0020111605A685A605A6819
:100F0C005A605A6842F480625A605A6822F47C1221
:100F1C005A605A6842F4E8125A601A6842F08072B9
:100F2C001A601A689201FCD55A6822F003025A60C2
:100F3C005A6842F002025A605A6802F00C02082AFF
:100F4C00FAD1C7E7001002400000FFF800ED00E006
:100F5C000020024070B500250C4E0D4CA41BA410B3
:100F6C00A54209D100F01AF800250A4E0A4CA41B20
:100F7C00A410A54205D170BD56F82530984701350F
:100F8C00EEE756F8253098470135F2E7C00F000818
:100F9C00C00F0008C00F0008C40F0008F8B500BF50
:100FAC00F8BC08BC9E467047F8B500BFF8BC08BC3E
:040FBC009E46704796
:040FC00031010008F3
:040FC4000D01000813
:100FC8000000340069009D00D10005013A016E015E
:100FD800A201D50109023C027002A302D60208034D
:100FE8003B036D039F03D103020433046404940498
:100FF800C404F404230552058005AE05DC05090682
:10100800360662068E06B906E3060D07370760073F
:101018008807B007D707FE07240849086E08920812
:10102800B508D808FA081B093C095C097B09990925
:10103800B709D409F0090C0A260A400A590A710AA4
:10104800880A9F0AB50ACA0ADE0AF10A030B150BB9
:10105800250B350B440B520B5F0B6B0B760B810B7F
:101068008A0B930B9B0BA20BA80BAD0BB10BB40B0C
:10107800B60BB80BB80BB80BB60BB40BB10BAD0B6A
:10108800A80BA20B9B0B930B8A0B810B760B6B0B9C
:101098005F0B520B440B350B250B150B030BF10A99
:1010A800DE0ACA0AB50A9F0A880A710A590A400A5A
:1010B800260A0C0AF009D409B70999097B095C09C1
:1010C8003C091B09FA08D808B50892086E084908AF
:1010D8002408FE07D707B0078807600737070D07FA
:1010E800E306B9068E06620636060906DC05AE0575
:1010F800800552052305F404C404940464043304ED
:101108000204D1039F036D033B030803D602A30225
:1011180070023C020902D501A2016E013A010501E3
:10112800D1009D00690034000000CCFF97FF63FFE9
:101138002FFFFBFEC6FE92FE5EFE2BFEF7FDC4FDF2
:1011480090FD5DFD2AFDF8FCC5FC93FC61FC2FFCBD
:10115800FEFBCDFB9CFB6CFB3CFB0CFBDDFAAEFA0B
:1011680080FA52FA24FAF7F9CAF99EF972F947F99E
:101178001DF9F3F8C9F8A0F878F850F829F802F83A
:10118800DCF7B7F792F76EF74BF728F706F7E5F6AF
:10119800C4F6A4F685F667F649F62CF610F6F4F5CB
:1011A800DAF5C0F5A7F58FF578F561F54BF536F565
:1011B80022F50FF5FDF4EBF4DBF4CBF4BCF4AEF45C
:1011C800A1F495F48AF47FF476F46DF465F45EF492
:1011D80058F453F44FF44CF44AF448F448F448F4FF
:1011E8004AF44CF44FF453F458F45EF465F46DF497
:1011F80076F47FF48AF495F4A1F4AEF4BCF4CBF45D
:10120800DBF4EBF4FDF40FF522F536F54BF561F55B
:1012180078F58FF5A7F5C0F5DAF5F4F510F62CF6A4
:1012280049F667F685F6A4F6C4F6E5F606F728F754
:101238004BF76EF792F7B7F7DCF702F829F850F892
:1012480078F8A0F8C9F8F3F81DF947F972F99EF98A
:10125800CAF9F7F924FA52FA80FAAEFADDFA0CFB69
:101268003CFB6CFB9CFBCDFBFEFB2FFC61FC93FC69
:10127800C5FCF8FC2AFD5DFD90FDC4FDF7FD2BFEC5
:101288005EFE92FEC6FEFBFE2FFF63FF97FFCCFFBC
:0412980000A24A0462
:0400000508000AD114
:00000001FF
